{
  "contractName": "Simplestorage",
  "abi": [
    {
      "constant": true,
      "inputs": [],
      "name": "getStorageInteger",
      "outputs": [
        {
          "name": "",
          "type": "uint256"
        }
      ],
      "payable": false,
      "stateMutability": "view",
      "type": "function"
    },
    {
      "constant": false,
      "inputs": [
        {
          "name": "_x",
          "type": "uint32"
        }
      ],
      "name": "setStorageInteger",
      "outputs": [],
      "payable": false,
      "stateMutability": "nonpayable",
      "type": "function"
    },
    {
      "inputs": [],
      "payable": false,
      "stateMutability": "nonpayable",
      "type": "constructor"
    }
  ],
  "bytecode": "0x6060604052341561000f57600080fd5b61303960008190555060df806100266000396000f3006060604052600436106049576000357c0100000000000000000000000000000000000000000000000000000000900463ffffffff1680630f0756bc14604e578063e3f960c0146074575b600080fd5b3415605857600080fd5b605e609a565b6040518082815260200191505060405180910390f35b3415607e57600080fd5b6098600480803563ffffffff1690602001909190505060a3565b005b60008054905090565b8063ffffffff16600081905550505600a165627a7a723058202adb4fcf81fb76c644e510063146e02a4d65908675dd356d4b35446907a4e1c90029",
  "source": "pragma solidity ^0.4.16;\r\n\r\ncontract Simplestorage {\r\n    uint private storageInteger;\r\n\r\n    function Simplestorage() public {\r\n        storageInteger = 12345;\r\n    }\r\n\r\n    function getStorageInteger() public constant returns (uint) {\r\n        return storageInteger;\r\n    }\r\n\r\n    function setStorageInteger(uint32 _x) public {\r\n        storageInteger = _x;\r\n    }\r\n}",
  "sourcePath": "C:\\finbot\\simplestorage\\contracts\\Simplestorage.sol",
  "compiler": {
    "name": "solc",
    "version": "0.4.18+commit.9cf6e910.Emscripten.clang"
  },
  "schemaVersion": "1.0.1",
  "updatedAt": "2018-01-15T03:49:32.689Z"
}